{
  "contractName": "AttendanceRegister",
  "abi": [
    {
      "inputs": [
        {
          "internalType": "address",
          "name": "_token",
          "type": "address"
        }
      ],
      "stateMutability": "nonpayable",
      "type": "constructor"
    },
    {
      "anonymous": false,
      "inputs": [
        {
          "indexed": true,
          "internalType": "address",
          "name": "student",
          "type": "address"
        },
        {
          "indexed": true,
          "internalType": "uint256",
          "name": "subjectId",
          "type": "uint256"
        },
        {
          "indexed": false,
          "internalType": "bool",
          "name": "isPresent",
          "type": "bool"
        }
      ],
      "name": "AttendanceMarked",
      "type": "event"
    },
    {
      "anonymous": false,
      "inputs": [
        {
          "indexed": true,
          "internalType": "address",
          "name": "student",
          "type": "address"
        },
        {
          "indexed": false,
          "internalType": "string",
          "name": "name",
          "type": "string"
        }
      ],
      "name": "StudentAdded",
      "type": "event"
    },
    {
      "anonymous": false,
      "inputs": [
        {
          "indexed": true,
          "internalType": "uint256",
          "name": "id",
          "type": "uint256"
        },
        {
          "indexed": false,
          "internalType": "string",
          "name": "name",
          "type": "string"
        }
      ],
      "name": "SubjectAdded",
      "type": "event"
    },
    {
      "inputs": [
        {
          "internalType": "address",
          "name": "newAdmin",
          "type": "address"
        }
      ],
      "name": "addAdmin",
      "outputs": [],
      "stateMutability": "nonpayable",
      "type": "function"
    },
    {
      "inputs": [
        {
          "internalType": "address",
          "name": "",
          "type": "address"
        },
        {
          "internalType": "uint256",
          "name": "",
          "type": "uint256"
        }
      ],
      "name": "attendance",
      "outputs": [
        {
          "internalType": "bool",
          "name": "",
          "type": "bool"
        }
      ],
      "stateMutability": "view",
      "type": "function",
      "constant": true
    },
    {
      "inputs": [
        {
          "internalType": "address",
          "name": "",
          "type": "address"
        }
      ],
      "name": "isAdmin",
      "outputs": [
        {
          "internalType": "bool",
          "name": "",
          "type": "bool"
        }
      ],
      "stateMutability": "view",
      "type": "function",
      "constant": true
    },
    {
      "inputs": [],
      "name": "owner",
      "outputs": [
        {
          "internalType": "address",
          "name": "",
          "type": "address"
        }
      ],
      "stateMutability": "view",
      "type": "function",
      "constant": true
    },
    {
      "inputs": [
        {
          "internalType": "address",
          "name": "admin",
          "type": "address"
        }
      ],
      "name": "removeAdmin",
      "outputs": [],
      "stateMutability": "nonpayable",
      "type": "function"
    },
    {
      "inputs": [
        {
          "internalType": "address",
          "name": "",
          "type": "address"
        }
      ],
      "name": "students",
      "outputs": [
        {
          "internalType": "string",
          "name": "name",
          "type": "string"
        },
        {
          "internalType": "bool",
          "name": "registered",
          "type": "bool"
        }
      ],
      "stateMutability": "view",
      "type": "function",
      "constant": true
    },
    {
      "inputs": [],
      "name": "subjectCount",
      "outputs": [
        {
          "internalType": "uint256",
          "name": "",
          "type": "uint256"
        }
      ],
      "stateMutability": "view",
      "type": "function",
      "constant": true
    },
    {
      "inputs": [
        {
          "internalType": "uint256",
          "name": "",
          "type": "uint256"
        }
      ],
      "name": "subjects",
      "outputs": [
        {
          "internalType": "uint256",
          "name": "id",
          "type": "uint256"
        },
        {
          "internalType": "string",
          "name": "name",
          "type": "string"
        }
      ],
      "stateMutability": "view",
      "type": "function",
      "constant": true
    },
    {
      "inputs": [],
      "name": "token",
      "outputs": [
        {
          "internalType": "contract AttendanceToken",
          "name": "",
          "type": "address"
        }
      ],
      "stateMutability": "view",
      "type": "function",
      "constant": true
    },
    {
      "inputs": [
        {
          "internalType": "address",
          "name": "_student",
          "type": "address"
        },
        {
          "internalType": "string",
          "name": "_name",
          "type": "string"
        }
      ],
      "name": "addStudent",
      "outputs": [],
      "stateMutability": "nonpayable",
      "type": "function"
    },
    {
      "inputs": [
        {
          "internalType": "string",
          "name": "_name",
          "type": "string"
        }
      ],
      "name": "addSubject",
      "outputs": [],
      "stateMutability": "nonpayable",
      "type": "function"
    },
    {
      "inputs": [
        {
          "internalType": "address",
          "name": "_student",
          "type": "address"
        },
        {
          "internalType": "uint256",
          "name": "_subjectId",
          "type": "uint256"
        },
        {
          "internalType": "bool",
          "name": "_isPresent",
          "type": "bool"
        }
      ],
      "name": "markAttendance",
      "outputs": [],
      "stateMutability": "nonpayable",
      "type": "function"
    },
    {
      "inputs": [
        {
          "internalType": "address",
          "name": "_student",
          "type": "address"
        }
      ],
      "name": "getStudent",
      "outputs": [
        {
          "internalType": "string",
          "name": "name",
          "type": "string"
        },
        {
          "internalType": "bool",
          "name": "registered",
          "type": "bool"
        }
      ],
      "stateMutability": "view",
      "type": "function",
      "constant": true
    },
    {
      "inputs": [
        {
          "internalType": "uint256",
          "name": "_subjectId",
          "type": "uint256"
        }
      ],
      "name": "getSubject",
      "outputs": [
        {
          "internalType": "uint256",
          "name": "id",
          "type": "uint256"
        },
        {
          "internalType": "string",
          "name": "name",
          "type": "string"
        }
      ],
      "stateMutability": "view",
      "type": "function",
      "constant": true
    }
  ],
  "bytecode": "0x608060405234801562000010575f80fd5b5060405162001bb738038062001bb7833981810160405281019062000036919062000176565b3360015f6101000a81548173ffffffffffffffffffffffffffffffffffffffff021916908373ffffffffffffffffffffffffffffffffffffffff16021790555060015f803373ffffffffffffffffffffffffffffffffffffffff1673ffffffffffffffffffffffffffffffffffffffff1681526020019081526020015f205f6101000a81548160ff0219169083151502179055508060025f6101000a81548173ffffffffffffffffffffffffffffffffffffffff021916908373ffffffffffffffffffffffffffffffffffffffff16021790555050620001a6565b5f80fd5b5f73ffffffffffffffffffffffffffffffffffffffff82169050919050565b5f620001408262000115565b9050919050565b620001528162000134565b81146200015d575f80fd5b50565b5f81519050620001708162000147565b92915050565b5f602082840312156200018e576200018d62000111565b5b5f6200019d8482850162000160565b91505092915050565b611a0380620001b45f395ff3fe608060405234801561000f575f80fd5b50600436106100e8575f3560e01c80636b7b44d71161008a5780639a8d8955116100645780639a8d895514610246578063a6c807a914610276578063f6dd0187146102a7578063fc0c546a146102d8576100e8565b80636b7b44d7146101db578063704802751461020c5780638da5cb5b14610228576100e8565b80632c7424af116100c65780632c7424af1461015457806352365794146101855780635e8b8091146101a1578063639a2e10146101bd576100e8565b80630667867f146100ec5780631785f53c1461010857806324d7806c14610124575b5f80fd5b61010660048036038101906101019190611008565b6102f6565b005b610122600480360381019061011d91906110a9565b61041d565b005b61013e600480360381019061013991906110a9565b610569565b60405161014b91906110ee565b60405180910390f35b61016e6004803603810190610169919061113a565b610585565b60405161017c9291906111ee565b60405180910390f35b61019f600480360381019061019a9190611246565b61062b565b005b6101bb60048036038101906101b69190611296565b6108de565b005b6101c5610ad0565b6040516101d291906112f0565b60405180910390f35b6101f560048036038101906101f091906110a9565b610ad6565b604051610203929190611309565b60405180910390f35b610226600480360381019061022191906110a9565b610bf8565b005b610230610cd7565b60405161023d9190611346565b60405180910390f35b610260600480360381019061025b919061135f565b610cfc565b60405161026d91906110ee565b60405180910390f35b610290600480360381019061028b91906110a9565b610d26565b60405161029e929190611309565b60405180910390f35b6102c160048036038101906102bc919061113a565b610dd8565b6040516102cf9291906111ee565b60405180910390f35b6102e0610e96565b6040516102ed91906113f8565b60405180910390f35b5f803373ffffffffffffffffffffffffffffffffffffffff1673ffffffffffffffffffffffffffffffffffffffff1681526020019081526020015f205f9054906101000a900460ff1661037e576040517f08c379a00000000000000000000000000000000000000000000000000000000081526004016103759061145b565b60405180910390fd5b60055f815480929190610390906114a6565b9190505550604051806040016040528060055481526020018281525060045f60055481526020019081526020015f205f820151815f015560208201518160010190816103dc91906116de565b509050506005547f3c0639ba5be66e60549512d98a202652b6c026eed6d05da393f802202cd2d74c8260405161041291906117ad565b60405180910390a250565b5f803373ffffffffffffffffffffffffffffffffffffffff1673ffffffffffffffffffffffffffffffffffffffff1681526020019081526020015f205f9054906101000a900460ff166104a5576040517f08c379a000000000000000000000000000000000000000000000000000000000815260040161049c9061145b565b60405180910390fd5b3373ffffffffffffffffffffffffffffffffffffffff168173ffffffffffffffffffffffffffffffffffffffff1603610513576040517f08c379a000000000000000000000000000000000000000000000000000000000815260040161050a90611817565b60405180910390fd5b5f805f8373ffffffffffffffffffffffffffffffffffffffff1673ffffffffffffffffffffffffffffffffffffffff1681526020019081526020015f205f6101000a81548160ff02191690831515021790555050565b5f602052805f5260405f205f915054906101000a900460ff1681565b6004602052805f5260405f205f91509050805f0154908060010180546105aa9061151a565b80601f01602080910402602001604051908101604052809291908181526020018280546105d69061151a565b80156106215780601f106105f857610100808354040283529160200191610621565b820191905f5260205f20905b81548152906001019060200180831161060457829003601f168201915b5050505050905082565b5f803373ffffffffffffffffffffffffffffffffffffffff1673ffffffffffffffffffffffffffffffffffffffff1681526020019081526020015f205f9054906101000a900460ff166106b3576040517f08c379a00000000000000000000000000000000000000000000000000000000081526004016106aa9061145b565b60405180910390fd5b60035f8473ffffffffffffffffffffffffffffffffffffffff1673ffffffffffffffffffffffffffffffffffffffff1681526020019081526020015f206001015f9054906101000a900460ff1661073f576040517f08c379a00000000000000000000000000000000000000000000000000000000081526004016107369061187f565b60405180910390fd5b5f8211801561075057506005548211155b61078f576040517f08c379a0000000000000000000000000000000000000000000000000000000008152600401610786906118e7565b60405180910390fd5b8060065f8573ffffffffffffffffffffffffffffffffffffffff1673ffffffffffffffffffffffffffffffffffffffff1681526020019081526020015f205f8481526020019081526020015f205f6101000a81548160ff021916908315150217905550801561088a5760025f9054906101000a900473ffffffffffffffffffffffffffffffffffffffff1673ffffffffffffffffffffffffffffffffffffffff166340c10f1984670de0b6b3a76400006040518363ffffffff1660e01b815260040161085c92919061193e565b5f604051808303815f87803b158015610873575f80fd5b505af1158015610885573d5f803e3d5ffd5b505050505b818373ffffffffffffffffffffffffffffffffffffffff167f4089fee55c6cdd5e1f2a18b8aaa35e69771031a233be6e7acb3212ed82c71a1f836040516108d191906110ee565b60405180910390a3505050565b5f803373ffffffffffffffffffffffffffffffffffffffff1673ffffffffffffffffffffffffffffffffffffffff1681526020019081526020015f205f9054906101000a900460ff16610966576040517f08c379a000000000000000000000000000000000000000000000000000000000815260040161095d9061145b565b60405180910390fd5b60035f8373ffffffffffffffffffffffffffffffffffffffff1673ffffffffffffffffffffffffffffffffffffffff1681526020019081526020015f206001015f9054906101000a900460ff16156109f3576040517f08c379a00000000000000000000000000000000000000000000000000000000081526004016109ea906119af565b60405180910390fd5b60405180604001604052808281526020016001151581525060035f8473ffffffffffffffffffffffffffffffffffffffff1673ffffffffffffffffffffffffffffffffffffffff1681526020019081526020015f205f820151815f019081610a5b91906116de565b506020820151816001015f6101000a81548160ff0219169083151502179055509050508173ffffffffffffffffffffffffffffffffffffffff167f546ed786c8923815c5efd04ecbc2b720211ff8b4998a8971c38897c3e75d199682604051610ac491906117ad565b60405180910390a25050565b60055481565b60605f60035f8473ffffffffffffffffffffffffffffffffffffffff1673ffffffffffffffffffffffffffffffffffffffff1681526020019081526020015f205f0160035f8573ffffffffffffffffffffffffffffffffffffffff1673ffffffffffffffffffffffffffffffffffffffff1681526020019081526020015f206001015f9054906101000a900460ff16818054610b719061151a565b80601f0160208091040260200160405190810160405280929190818152602001828054610b9d9061151a565b8015610be85780601f10610bbf57610100808354040283529160200191610be8565b820191905f5260205f20905b815481529060010190602001808311610bcb57829003601f168201915b5050505050915091509150915091565b5f803373ffffffffffffffffffffffffffffffffffffffff1673ffffffffffffffffffffffffffffffffffffffff1681526020019081526020015f205f9054906101000a900460ff16610c80576040517f08c379a0000000000000000000000000000000000000000000000000000000008152600401610c779061145b565b60405180910390fd5b60015f808373ffffffffffffffffffffffffffffffffffffffff1673ffffffffffffffffffffffffffffffffffffffff1681526020019081526020015f205f6101000a81548160ff02191690831515021790555050565b60015f9054906101000a900473ffffffffffffffffffffffffffffffffffffffff1681565b6006602052815f5260405f20602052805f5260405f205f915091509054906101000a900460ff1681565b6003602052805f5260405f205f91509050805f018054610d459061151a565b80601f0160208091040260200160405190810160405280929190818152602001828054610d719061151a565b8015610dbc5780601f10610d9357610100808354040283529160200191610dbc565b820191905f5260205f20905b815481529060010190602001808311610d9f57829003601f168201915b505050505090806001015f9054906101000a900460ff16905082565b5f606060045f8481526020019081526020015f205f015460045f8581526020019081526020015f20600101808054610e0f9061151a565b80601f0160208091040260200160405190810160405280929190818152602001828054610e3b9061151a565b8015610e865780601f10610e5d57610100808354040283529160200191610e86565b820191905f5260205f20905b815481529060010190602001808311610e6957829003601f168201915b5050505050905091509150915091565b60025f9054906101000a900473ffffffffffffffffffffffffffffffffffffffff1681565b5f604051905090565b5f80fd5b5f80fd5b5f80fd5b5f80fd5b5f601f19601f8301169050919050565b7f4e487b71000000000000000000000000000000000000000000000000000000005f52604160045260245ffd5b610f1a82610ed4565b810181811067ffffffffffffffff82111715610f3957610f38610ee4565b5b80604052505050565b5f610f4b610ebb565b9050610f578282610f11565b919050565b5f67ffffffffffffffff821115610f7657610f75610ee4565b5b610f7f82610ed4565b9050602081019050919050565b828183375f83830152505050565b5f610fac610fa784610f5c565b610f42565b905082815260208101848484011115610fc857610fc7610ed0565b5b610fd3848285610f8c565b509392505050565b5f82601f830112610fef57610fee610ecc565b5b8135610fff848260208601610f9a565b91505092915050565b5f6020828403121561101d5761101c610ec4565b5b5f82013567ffffffffffffffff81111561103a57611039610ec8565b5b61104684828501610fdb565b91505092915050565b5f73ffffffffffffffffffffffffffffffffffffffff82169050919050565b5f6110788261104f565b9050919050565b6110888161106e565b8114611092575f80fd5b50565b5f813590506110a38161107f565b92915050565b5f602082840312156110be576110bd610ec4565b5b5f6110cb84828501611095565b91505092915050565b5f8115159050919050565b6110e8816110d4565b82525050565b5f6020820190506111015f8301846110df565b92915050565b5f819050919050565b61111981611107565b8114611123575f80fd5b50565b5f8135905061113481611110565b92915050565b5f6020828403121561114f5761114e610ec4565b5b5f61115c84828501611126565b91505092915050565b61116e81611107565b82525050565b5f81519050919050565b5f82825260208201905092915050565b5f5b838110156111ab578082015181840152602081019050611190565b5f8484015250505050565b5f6111c082611174565b6111ca818561117e565b93506111da81856020860161118e565b6111e381610ed4565b840191505092915050565b5f6040820190506112015f830185611165565b818103602083015261121381846111b6565b90509392505050565b611225816110d4565b811461122f575f80fd5b50565b5f813590506112408161121c565b92915050565b5f805f6060848603121561125d5761125c610ec4565b5b5f61126a86828701611095565b935050602061127b86828701611126565b925050604061128c86828701611232565b9150509250925092565b5f80604083850312156112ac576112ab610ec4565b5b5f6112b985828601611095565b925050602083013567ffffffffffffffff8111156112da576112d9610ec8565b5b6112e685828601610fdb565b9150509250929050565b5f6020820190506113035f830184611165565b92915050565b5f6040820190508181035f83015261132181856111b6565b905061133060208301846110df565b9392505050565b6113408161106e565b82525050565b5f6020820190506113595f830184611337565b92915050565b5f806040838503121561137557611374610ec4565b5b5f61138285828601611095565b925050602061139385828601611126565b9150509250929050565b5f819050919050565b5f6113c06113bb6113b68461104f565b61139d565b61104f565b9050919050565b5f6113d1826113a6565b9050919050565b5f6113e2826113c7565b9050919050565b6113f2816113d8565b82525050565b5f60208201905061140b5f8301846113e9565b92915050565b7f4e6f7420616e2061646d696e00000000000000000000000000000000000000005f82015250565b5f611445600c8361117e565b915061145082611411565b602082019050919050565b5f6020820190508181035f83015261147281611439565b9050919050565b7f4e487b71000000000000000000000000000000000000000000000000000000005f52601160045260245ffd5b5f6114b082611107565b91507fffffffffffffffffffffffffffffffffffffffffffffffffffffffffffffffff82036114e2576114e1611479565b5b600182019050919050565b7f4e487b71000000000000000000000000000000000000000000000000000000005f52602260045260245ffd5b5f600282049050600182168061153157607f821691505b602082108103611544576115436114ed565b5b50919050565b5f819050815f5260205f209050919050565b5f6020601f8301049050919050565b5f82821b905092915050565b5f600883026115a67fffffffffffffffffffffffffffffffffffffffffffffffffffffffffffffffff8261156b565b6115b0868361156b565b95508019841693508086168417925050509392505050565b5f6115e26115dd6115d884611107565b61139d565b611107565b9050919050565b5f819050919050565b6115fb836115c8565b61160f611607826115e9565b848454611577565b825550505050565b5f90565b611623611617565b61162e8184846115f2565b505050565b5b81811015611651576116465f8261161b565b600181019050611634565b5050565b601f821115611696576116678161154a565b6116708461155c565b8101602085101561167f578190505b61169361168b8561155c565b830182611633565b50505b505050565b5f82821c905092915050565b5f6116b65f198460080261169b565b1980831691505092915050565b5f6116ce83836116a7565b9150826002028217905092915050565b6116e782611174565b67ffffffffffffffff811115611700576116ff610ee4565b5b61170a825461151a565b611715828285611655565b5f60209050601f831160018114611746575f8415611734578287015190505b61173e85826116c3565b8655506117a5565b601f1984166117548661154a565b5f5b8281101561177b57848901518255600182019150602085019450602081019050611756565b868310156117985784890151611794601f8916826116a7565b8355505b6001600288020188555050505b505050505050565b5f6020820190508181035f8301526117c581846111b6565b905092915050565b7f43616e6e6f742072656d6f76652073656c6600000000000000000000000000005f82015250565b5f61180160128361117e565b915061180c826117cd565b602082019050919050565b5f6020820190508181035f83015261182e816117f5565b9050919050565b7f53747564656e74206e6f742072656769737465726564000000000000000000005f82015250565b5f61186960168361117e565b915061187482611835565b602082019050919050565b5f6020820190508181035f8301526118968161185d565b9050919050565b7f496e76616c6964207375626a65637400000000000000000000000000000000005f82015250565b5f6118d1600f8361117e565b91506118dc8261189d565b602082019050919050565b5f6020820190508181035f8301526118fe816118c5565b9050919050565b5f819050919050565b5f61192861192361191e84611905565b61139d565b611107565b9050919050565b6119388161190e565b82525050565b5f6040820190506119515f830185611337565b61195e602083018461192f565b9392505050565b7f416c7265616479207265676973746572656400000000000000000000000000005f82015250565b5f61199960128361117e565b91506119a482611965565b602082019050919050565b5f6020820190508181035f8301526119c68161198d565b905091905056fea26469706673582212206aad8baeaee85dd90ddf1e328cc58487dc074a9a515820d0a98f451fdf7b755564736f6c63430008140033",
  "immutableReferences": {},
  "source": "// SPDX-License-Identifier: MIT\npragma solidity ^0.8.0;\n\nimport \"./AttendanceToken.sol\";\nimport \"./SimpleAdmin.sol\";\n\ncontract AttendanceRegister is SimpleAdmin {\n    AttendanceToken public token;\n\n    struct Student {\n        string name;\n        bool registered;\n    }\n\n    struct Subject {\n        uint id;\n        string name;\n    }\n\n    mapping(address => Student) public students;\n    mapping(uint => Subject) public subjects;\n    uint public subjectCount;\n\n    // student => subjectId => isPresent\n    mapping(address => mapping(uint => bool)) public attendance;\n\n    event AttendanceMarked(address indexed student, uint indexed subjectId, bool isPresent);\n    event StudentAdded(address indexed student, string name);\n    event SubjectAdded(uint indexed id, string name);\n\n    constructor(address _token) {\n        token = AttendanceToken(_token);\n    }\n\n    function addStudent(address _student, string memory _name) public onlyAdmin {\n        require(!students[_student].registered, \"Already registered\");\n        students[_student] = Student(_name, true);\n        emit StudentAdded(_student, _name);\n    }\n\n    function addSubject(string memory _name) public onlyAdmin {\n        subjectCount++;\n        subjects[subjectCount] = Subject(subjectCount, _name);\n        emit SubjectAdded(subjectCount, _name);\n    }\n\n    function markAttendance(address _student, uint _subjectId, bool _isPresent) public onlyAdmin {\n        require(students[_student].registered, \"Student not registered\");\n        require(_subjectId > 0 && _subjectId <= subjectCount, \"Invalid subject\");\n        \n        attendance[_student][_subjectId] = _isPresent;\n        \n        if (_isPresent) {\n            token.mint(_student, 1 * 10**18); // 1 token\n        }\n        \n        emit AttendanceMarked(_student, _subjectId, _isPresent);\n    }\n    \n    function getStudent(address _student) public view returns (string memory name, bool registered) {\n        return (students[_student].name, students[_student].registered);\n    }\n\n    function getSubject(uint _subjectId) public view returns (uint id, string memory name) {\n        return (subjects[_subjectId].id, subjects[_subjectId].name);\n    }\n}\n",
  "sourcePath": "/home/sam/Templates/blockchain_v4/attendance-system/contracts/AttendanceRegister.sol",
  "compiler": {
    "name": "solc",
    "version": "0.8.20+commit.a1b79de6.Emscripten.clang"
  },
  "schemaVersion": "3.4.16",
  "updatedAt": "2026-02-09T00:44:17.997Z",
  "networkType": "ethereum",
  "devdoc": {
    "kind": "dev",
    "methods": {},
    "version": 1
  },
  "userdoc": {
    "kind": "user",
    "methods": {},
    "version": 1
  }
}