{
  "contractName": "SimpleAdmin",
  "abi": [
    {
      "inputs": [],
      "stateMutability": "nonpayable",
      "type": "constructor"
    },
    {
      "inputs": [
        {
          "internalType": "address",
          "name": "",
          "type": "address"
        }
      ],
      "name": "isAdmin",
      "outputs": [
        {
          "internalType": "bool",
          "name": "",
          "type": "bool"
        }
      ],
      "stateMutability": "view",
      "type": "function"
    },
    {
      "inputs": [],
      "name": "owner",
      "outputs": [
        {
          "internalType": "address",
          "name": "",
          "type": "address"
        }
      ],
      "stateMutability": "view",
      "type": "function"
    },
    {
      "inputs": [
        {
          "internalType": "address",
          "name": "newAdmin",
          "type": "address"
        }
      ],
      "name": "addAdmin",
      "outputs": [],
      "stateMutability": "nonpayable",
      "type": "function"
    },
    {
      "inputs": [
        {
          "internalType": "address",
          "name": "admin",
          "type": "address"
        }
      ],
      "name": "removeAdmin",
      "outputs": [],
      "stateMutability": "nonpayable",
      "type": "function"
    }
  ],
  "bytecode": "0x608060405234801561000f575f80fd5b503360015f6101000a81548173ffffffffffffffffffffffffffffffffffffffff021916908373ffffffffffffffffffffffffffffffffffffffff16021790555060015f803373ffffffffffffffffffffffffffffffffffffffff1673ffffffffffffffffffffffffffffffffffffffff1681526020019081526020015f205f6101000a81548160ff02191690831515021790555061053a806100b15f395ff3fe608060405234801561000f575f80fd5b506004361061004a575f3560e01c80631785f53c1461004e57806324d7806c1461006a578063704802751461009a5780638da5cb5b146100b6575b5f80fd5b6100686004803603810190610063919061039e565b6100d4565b005b610084600480360381019061007f919061039e565b610220565b60405161009191906103e3565b60405180910390f35b6100b460048036038101906100af919061039e565b61023c565b005b6100be61031b565b6040516100cb919061040b565b60405180910390f35b5f803373ffffffffffffffffffffffffffffffffffffffff1673ffffffffffffffffffffffffffffffffffffffff1681526020019081526020015f205f9054906101000a900460ff1661015c576040517f08c379a00000000000000000000000000000000000000000000000000000000081526004016101539061047e565b60405180910390fd5b3373ffffffffffffffffffffffffffffffffffffffff168173ffffffffffffffffffffffffffffffffffffffff16036101ca576040517f08c379a00000000000000000000000000000000000000000000000000000000081526004016101c1906104e6565b60405180910390fd5b5f805f8373ffffffffffffffffffffffffffffffffffffffff1673ffffffffffffffffffffffffffffffffffffffff1681526020019081526020015f205f6101000a81548160ff02191690831515021790555050565b5f602052805f5260405f205f915054906101000a900460ff1681565b5f803373ffffffffffffffffffffffffffffffffffffffff1673ffffffffffffffffffffffffffffffffffffffff1681526020019081526020015f205f9054906101000a900460ff166102c4576040517f08c379a00000000000000000000000000000000000000000000000000000000081526004016102bb9061047e565b60405180910390fd5b60015f808373ffffffffffffffffffffffffffffffffffffffff1673ffffffffffffffffffffffffffffffffffffffff1681526020019081526020015f205f6101000a81548160ff02191690831515021790555050565b60015f9054906101000a900473ffffffffffffffffffffffffffffffffffffffff1681565b5f80fd5b5f73ffffffffffffffffffffffffffffffffffffffff82169050919050565b5f61036d82610344565b9050919050565b61037d81610363565b8114610387575f80fd5b50565b5f8135905061039881610374565b92915050565b5f602082840312156103b3576103b2610340565b5b5f6103c08482850161038a565b91505092915050565b5f8115159050919050565b6103dd816103c9565b82525050565b5f6020820190506103f65f8301846103d4565b92915050565b61040581610363565b82525050565b5f60208201905061041e5f8301846103fc565b92915050565b5f82825260208201905092915050565b7f4e6f7420616e2061646d696e00000000000000000000000000000000000000005f82015250565b5f610468600c83610424565b915061047382610434565b602082019050919050565b5f6020820190508181035f8301526104958161045c565b9050919050565b7f43616e6e6f742072656d6f76652073656c6600000000000000000000000000005f82015250565b5f6104d0601283610424565b91506104db8261049c565b602082019050919050565b5f6020820190508181035f8301526104fd816104c4565b905091905056fea2646970667358221220cef68e92f42e60afa8782889bc9df04098150a23a552764a936c7eb067da3d4764736f6c63430008140033",
  "immutableReferences": {},
  "source": "// SPDX-License-Identifier: MIT\npragma solidity ^0.8.0;\n\ncontract SimpleAdmin {\n    mapping(address => bool) public isAdmin;\n    address public owner;\n\n    constructor() {\n        owner = msg.sender;\n        isAdmin[msg.sender] = true;\n    }\n\n    modifier onlyAdmin() {\n        require(isAdmin[msg.sender], \"Not an admin\");\n        _;\n    }\n\n    function addAdmin(address newAdmin) public onlyAdmin {\n        isAdmin[newAdmin] = true;\n    }\n\n    function removeAdmin(address admin) public onlyAdmin {\n        require(admin != msg.sender, \"Cannot remove self\");\n        isAdmin[admin] = false;\n    }\n}\n",
  "sourcePath": "/home/sam/Templates/blockchain_v4/attendance-system/contracts/SimpleAdmin.sol",
  "compiler": {
    "name": "solc",
    "version": "0.8.20+commit.a1b79de6.Emscripten.clang"
  },
  "schemaVersion": "3.4.16",
  "updatedAt": "2026-02-08T22:52:22.091Z",
  "devdoc": {
    "kind": "dev",
    "methods": {},
    "version": 1
  },
  "userdoc": {
    "kind": "user",
    "methods": {},
    "version": 1
  }
}